{
  "address": "0x42122036Be4fE61b206766d493b6Cf46ea0360b0",
  "abi": [
    {
      "inputs": [
        {
          "internalType": "string",
          "name": "fileName",
          "type": "string"
        }
      ],
      "name": "getIPFSHash",
      "outputs": [
        {
          "internalType": "string",
          "name": "",
          "type": "string"
        }
      ],
      "stateMutability": "view",
      "type": "function"
    },
    {
      "inputs": [
        {
          "internalType": "string",
          "name": "fileName",
          "type": "string"
        }
      ],
      "name": "isFileStored",
      "outputs": [
        {
          "internalType": "bool",
          "name": "",
          "type": "bool"
        }
      ],
      "stateMutability": "view",
      "type": "function"
    },
    {
      "inputs": [
        {
          "internalType": "string",
          "name": "fileName",
          "type": "string"
        },
        {
          "internalType": "string",
          "name": "ipfsHash",
          "type": "string"
        }
      ],
      "name": "upload",
      "outputs": [],
      "stateMutability": "nonpayable",
      "type": "function"
    }
  ],
  "transactionHash": "0x02b3980946d0c452b8d6d4c6895ccb1d072b1d55efb502b3b12db8518150ee8e",
  "args": [],
  "numDeployments": 1,
  "solcInputHash": "c778c9a9e5816ffa189e93f16a6fef4e",
  "bytecode": "0x6080604052348015600f57600080fd5b50610a2d8061001f6000396000f3fe608060405234801561001057600080fd5b50600436106100415760003560e01c8063202e4936146100465780634a5f66c114610062578063e0956ad014610092575b600080fd5b610060600480360381019061005b919061044c565b6100c2565b005b61007c600480360381019061007791906104c4565b610197565b604051610089919061058c565b60405180910390f35b6100ac60048036038101906100a791906104c4565b6102b9565b6040516100b991906105c9565b60405180910390f35b600080836040516100d39190610620565b908152602001604051809103902060010180546100ef90610666565b905014610131576040517f08c379a0000000000000000000000000000000000000000000000000000000008152600401610128906106e3565b60405180910390fd5b6040518060400160405280838152602001828152506000836040516101569190610620565b9081526020016040518091039020600082015181600001908161017991906108b9565b50602082015181600101908161018f91906108b9565b509050505050565b6060600080836040516101aa9190610620565b908152602001604051809103902060010180546101c690610666565b905011610208576040517f08c379a00000000000000000000000000000000000000000000000000000000081526004016101ff906109d7565b60405180910390fd5b6000826040516102189190610620565b9081526020016040518091039020600101805461023490610666565b80601f016020809104026020016040519081016040528092919081815260200182805461026090610666565b80156102ad5780601f10610282576101008083540402835291602001916102ad565b820191906000526020600020905b81548152906001019060200180831161029057829003601f168201915b50505050509050919050565b6000806000836040516102cc9190610620565b908152602001604051809103902060010180546102e890610666565b9050119050919050565b6000604051905090565b600080fd5b600080fd5b600080fd5b600080fd5b6000601f19601f8301169050919050565b7f4e487b7100000000000000000000000000000000000000000000000000000000600052604160045260246000fd5b61035982610310565b810181811067ffffffffffffffff8211171561037857610377610321565b5b80604052505050565b600061038b6102f2565b90506103978282610350565b919050565b600067ffffffffffffffff8211156103b7576103b6610321565b5b6103c082610310565b9050602081019050919050565b82818337600083830152505050565b60006103ef6103ea8461039c565b610381565b90508281526020810184848401111561040b5761040a61030b565b5b6104168482856103cd565b509392505050565b600082601f83011261043357610432610306565b5b81356104438482602086016103dc565b91505092915050565b60008060408385031215610463576104626102fc565b5b600083013567ffffffffffffffff81111561048157610480610301565b5b61048d8582860161041e565b925050602083013567ffffffffffffffff8111156104ae576104ad610301565b5b6104ba8582860161041e565b9150509250929050565b6000602082840312156104da576104d96102fc565b5b600082013567ffffffffffffffff8111156104f8576104f7610301565b5b6105048482850161041e565b91505092915050565b600081519050919050565b600082825260208201905092915050565b60005b8381101561054757808201518184015260208101905061052c565b60008484015250505050565b600061055e8261050d565b6105688185610518565b9350610578818560208601610529565b61058181610310565b840191505092915050565b600060208201905081810360008301526105a68184610553565b905092915050565b60008115159050919050565b6105c3816105ae565b82525050565b60006020820190506105de60008301846105ba565b92915050565b600081905092915050565b60006105fa8261050d565b61060481856105e4565b9350610614818560208601610529565b80840191505092915050565b600061062c82846105ef565b915081905092915050565b7f4e487b7100000000000000000000000000000000000000000000000000000000600052602260045260246000fd5b6000600282049050600182168061067e57607f821691505b60208210810361069157610690610637565b5b50919050565b7f46696c6520616c72656164792065786973747300000000000000000000000000600082015250565b60006106cd601383610518565b91506106d882610697565b602082019050919050565b600060208201905081810360008301526106fc816106c0565b9050919050565b60008190508160005260206000209050919050565b60006020601f8301049050919050565b600082821b905092915050565b6000600883026107657fffffffffffffffffffffffffffffffffffffffffffffffffffffffffffffffff82610728565b61076f8683610728565b95508019841693508086168417925050509392505050565b6000819050919050565b6000819050919050565b60006107b66107b16107ac84610787565b610791565b610787565b9050919050565b6000819050919050565b6107d08361079b565b6107e46107dc826107bd565b848454610735565b825550505050565b600090565b6107f96107ec565b6108048184846107c7565b505050565b5b818110156108285761081d6000826107f1565b60018101905061080a565b5050565b601f82111561086d5761083e81610703565b61084784610718565b81016020851015610856578190505b61086a61086285610718565b830182610809565b50505b505050565b600082821c905092915050565b600061089060001984600802610872565b1980831691505092915050565b60006108a9838361087f565b9150826002028217905092915050565b6108c28261050d565b67ffffffffffffffff8111156108db576108da610321565b5b6108e58254610666565b6108f082828561082c565b600060209050601f8311600181146109235760008415610911578287015190505b61091b858261089d565b865550610983565b601f19841661093186610703565b60005b8281101561095957848901518255600182019150602085019450602081019050610934565b868310156109765784890151610972601f89168261087f565b8355505b6001600288020188555050505b505050505050565b7f46696c65206e6f7420666f756e64000000000000000000000000000000000000600082015250565b60006109c1600e83610518565b91506109cc8261098b565b602082019050919050565b600060208201905081810360008301526109f0816109b4565b905091905056fea264697066735822122034a28a8afd61964908ac03292c0996f1bfcf780d3892f67e440a56b95e5b565f64736f6c634300081b0033",
  "devdoc": {
    "kind": "dev",
    "methods": {},
    "version": 1
  },
  "userdoc": {
    "kind": "user",
    "methods": {},
    "version": 1
  },
  "storageLayout": {
    "storage": [
      {
        "astId": 11,
        "contract": "contracts/IPFShashStorage.sol:IPFShashStorage",
        "label": "files",
        "offset": 0,
        "slot": "0",
        "type": "t_mapping(t_string_memory_ptr,t_struct(File)6_storage)"
      }
    ],
    "types": {
      "t_mapping(t_string_memory_ptr,t_struct(File)6_storage)": {
        "encoding": "mapping",
        "key": "t_string_memory_ptr",
        "label": "mapping(string => struct IPFShashStorage.File)",
        "numberOfBytes": "32",
        "value": "t_struct(File)6_storage"
      },
      "t_string_memory_ptr": {
        "encoding": "bytes",
        "label": "string",
        "numberOfBytes": "32"
      },
      "t_string_storage": {
        "encoding": "bytes",
        "label": "string",
        "numberOfBytes": "32"
      },
      "t_struct(File)6_storage": {
        "encoding": "inplace",
        "label": "struct IPFShashStorage.File",
        "members": [
          {
            "astId": 3,
            "contract": "contracts/IPFShashStorage.sol:IPFShashStorage",
            "label": "fileName",
            "offset": 0,
            "slot": "0",
            "type": "t_string_storage"
          },
          {
            "astId": 5,
            "contract": "contracts/IPFShashStorage.sol:IPFShashStorage",
            "label": "ipfsHash",
            "offset": 0,
            "slot": "1",
            "type": "t_string_storage"
          }
        ],
        "numberOfBytes": "64"
      }
    }
  }
}